:100000000C945D000C9485000C9485000C94850084
:100010000C9485000C9485000C9485000C9485004C
:100020000C9485000C9485000C9485000C9485003C
:100030000C9485000C9485000C9485000C9485002C
:100040000C9481020C9485000C9485000C9485001E
:100050000C9485000C9485000C9485000C9485000C
:100060000C9485000C94850000000008000201003B
:100070000003040700000000000000000000000072
:10008000250028002B0000000000240027002A0083
:10009000040404040404040402020202020203032E
:1000A0000303030301020408102040800102040836
:1000B0001020010204081020790311241FBECFEF85
:1000C000D4E0DEBFCDBF11E0A0E0B1E0E4E8F7E0AE
:1000D00002C005900D92AE33B107D9F721E0AEE32F
:1000E000B1E001C01D92AF35B207E1F710E0CDE5F8
:1000F000D0E004C02197FE010E94BA03CC35D1079D
:10010000C9F70E94CB020C94C0030C94000090E04D
:10011000FC01EC55FF4F249180579F4FFC018491C7
:10012000882399F090E0880F991FFC01EA57FF4F50
:10013000A591B491FC01E458FF4F859194918FB73C
:10014000F894EC91E22BEC938FBF0895AF92BF929D
:10015000CF92DF92EF92FF920F931F93CF93DF9393
:100160006C017B018B01040F151FEB015E01AE18C2
:10017000BF08C017D10759F06991D601ED91FC91E4
:100180000190F081E02DC6010995892B79F7C50111
:10019000DF91CF911F910F91FF90EF90DF90CF9063
:1001A000BF90AF90089590E0FC01E859FF4F249173
:1001B000FC01EC55FF4F3491FC01E057FF4FE491F7
:1001C000EE23C9F0222339F0233001F1A8F42130C5
:1001D00019F1223029F1F0E0EE0FFF1FE458FF4F34
:1001E000A591B4918FB7F894EC91611126C0309528
:1001F0003E233C938FBF08952730A9F02830C9F0E3
:10020000243049F7809180008F7D03C08091800069
:100210008F7780938000DFCF84B58F7784BDDBCF6D
:1002200084B58F7DFBCF8091B0008F778093B00035
:10023000D2CF8091B0008F7DF9CF3E2BDACF0895D9
:1002400090E080E00895FC0101900020E9F73197EB
:10025000AF01481B590BBC0187E491E00C94A60048
:10026000CF93DF93EC0160E08E810E94D30061E0C8
:100270008E810E94D30060E08E810E94D3008BE8C3
:1002800091E00197F1F7DF91CF910895CF92DF923E
:10029000EF92FF920F931F93CF93DF936C017C013A
:1002A00087E0E80EF11CD0E0C0E0062F10E0B801B6
:1002B0000C2E02C0759567950A94E2F76170F701FC
:1002C00081917F010E94D3002196C430D10579F736
:1002D000C601DF91CF911F910F91FF90EF90DF90BA
:1002E000CF900C943001CF92DF92EF92FF920F9358
:1002F0001F93CF93DF93EC01F62E642F8C810E9425
:10030000D3008D818F3F19F060E00E94D3000F2D44
:1003100010E08F8584FF25C06E0187E0C80ED11CD8
:10032000F12CE12CB8010E2C02C0759567950A944A
:10033000E2F76170F60181916F010E94D300FFEF37
:10034000EF1AFF0A88E0E816F10461F7CE01DF91A9
:10035000CF911F910F91FF90EF90DF90CF900C9471
:100360003001B80184E0759567958A95E1F7CE0173
:100370000E9446016F2DCE01DF91CF911F910F9109
:10038000FF90EF90DF90CF900C94460140E0682FF3
:1003900087E491E00C947301CF93DF93613029F0EF
:1003A0009091560198609093560160935A01109273
:1003B0005B0190E490935C0180935D01805C80938D
:1003C0005E0180914B010E94870080914C018F3F1C
:1003D00011F00E94870080914D010E948700C7E4C0
:1003E000D1E09E01275431408091560184FD0AC01E
:1003F00084E090E02196281739073CF48E810E9412
:100400008700EFCF88E090E0F5CF8BE39DE0019788
:10041000F1F760E080914B010E94D30060E0809191
:100420004D010E94D30080914C018F3F19F060E094
:100430000E94D3008091560184FD39C063E087E4B7
:1004400091E00E944601CBE4D6E4CE010197F1F79A
:1004500063E087E491E00E9446012197F1F763E0B1
:1004600087E491E00E94460183E592E00197F1F76D
:1004700062E087E491E00E9446018091560180622B
:100480000E94C60184E0809357018CE00E94C6015F
:1004900081E00E94C6018BE39FE10197F1F782E0C2
:1004A0008093580186E0DF91CF910C94C601806261
:1004B0000E94C6018BE496E40197F1F78091560102
:1004C00080620E94C60183E592E00197F1F7809176
:1004D000560180620E94C601D0CF90915A018917BF
:1004E00010F08FEF890FE82FF0E0E95BFE4F848971
:1004F00080680C94C60141E00E94730181E090E0A5
:1005000008951F920F920FB60F9211242F933F93CD
:100510008F939F93AF93BF93809143019091440138
:10052000A0914501B09146013091420123E0230F93
:100530002D3758F50196A11DB11D209342018093DE
:10054000430190934401A0934501B09346018091EB
:100550003E0190913F01A0914001B091410101966F
:10056000A11DB11D80933E0190933F01A0934001D6
:10057000B0934101BF91AF919F918F913F912F9186
:100580000F900FBE0F901F90189526E8230F02962C
:10059000A11DB11DD2CFCF93DF93CDB7DEB7A19709
:1005A0000FB6F894DEBF0FBECDBF789484B58260DD
:1005B00084BD84B5816084BD85B5826085BD85B507
:1005C000816085BD80916E00816080936E00109285
:1005D0008100809181008260809381008091810000
:1005E0008160809381008091800081608093800091
:1005F0008091B10084608093B1008091B0008160EF
:100600008093B00080917A00846080937A0080911A
:100610007A00826080937A0080917A008160809372
:100620007A0080917A00806880937A001092C100ED
:1006300064E084E10E94CC0180E00E946D028CE0C5
:1006400091E00E94230181E00E946D028EE191E021
:100650000E94230182E00E946D0288E291E00E94E4
:10066000230188EEC82E83E0D82EE12CF12C9AE0ED
:10067000492E512C612C712C20E0A22E20E0B22EAC
:1006800083E00E946D022FB7F8946091430170914E
:10069000440180914501909146012FBFA701960129
:1006A0000E94980319A28E010F5D1F4FCA01B90164
:1006B000A30192010E949803605DF80162938F018B
:1006C000211531054105510589F7309761F00190F9
:1006D0000020E9F73197AF01401B510BB80187E4C7
:1006E00091E00E94A600A114B10451F20E94000002
:1006F000C7CFE7E4F1E01382128284E091E09183B6
:10070000808387E084838FEF858388E0868389E018
:1007100087838AE080878BE081878CE082871386DD
:10072000148615861686178661E080E10C94CC014C
:10073000A1E21A2EAA1BBB1BFD010DC0AA1FBB1FE5
:10074000EE1FFF1FA217B307E407F50720F0A21B57
:10075000B30BE40BF50B661F771F881F991F1A94C4
:1007600069F760957095809590959B01AC01BD01EE
:10077000CF010895EE0FFF1F0590F491E02D09942D
:04078000F894FFCF1B
:10078400000000007B02A60020011F0157656C6376
:100794006F6D6520746F2054776F726B73004879A6
:1007A40064657261626164004F787967656E2043A5
:0E07B4006F6E63656E747261746F7221000067
:00000001FF
