:100000000C945D000C9485000C9485000C94850084
:100010000C9485000C9485000C9485000C9485004C
:100020000C9485000C9485000C9485000C9485003C
:100030000C9485000C9485000C9485000C9485002C
:100040000C9466020C9485000C9485000C94850039
:100050000C9485000C9485000C9485000C9485000C
:100060000C9485000C94850000000008000201003B
:100070000003040700000000000000000000000072
:10008000250028002B0000000000240027002A0083
:10009000040404040404040402020202020203032E
:1000A0000303030301020408102040800102040836
:1000B00010200102040810205E0311241FBECFEFA0
:1000C000D4E0DEBFCDBF11E0A0E0B1E0EEE4F7E0A8
:1000D00002C005900D92AE31B107D9F721E0AEE133
:1000E000B1E001C01D92AF33B207E1F710E0CDE5FA
:1000F000D0E004C02197FE010E949F03CC35D107B8
:10010000C9F70E94B0020C94A5030C94000090E083
:10011000FC01EC55FF4F249180579F4FFC018491C7
:10012000882399F090E0880F991FFC01EA57FF4F50
:10013000A591B491FC01E458FF4F859194918FB73C
:10014000F894EC91E22BEC938FBF0895AF92BF929D
:10015000CF92DF92EF92FF920F931F93CF93DF9393
:100160006C017B018B01040F151FEB015E01AE18C2
:10017000BF08C017D10759F06991D601ED91FC91E4
:100180000190F081E02DC6010995892B79F7C50111
:10019000DF91CF911F910F91FF90EF90DF90CF9063
:1001A000BF90AF90089590E0FC01E859FF4F249173
:1001B000FC01EC55FF4F3491FC01E057FF4FE491F7
:1001C000EE23C9F0222339F0233001F1A8F42130C5
:1001D00019F1223029F1F0E0EE0FFF1FE458FF4F34
:1001E000A591B4918FB7F894EC91611126C0309528
:1001F0003E233C938FBF08952730A9F02830C9F0E3
:10020000243049F7809180008F7D03C08091800069
:100210008F7780938000DFCF84B58F7784BDDBCF6D
:1002200084B58F7DFBCF8091B0008F778093B00035
:10023000D2CF8091B0008F7DF9CF3E2BDACF0895D9
:1002400090E080E00895CF93DF93EC0160E08E8131
:100250000E94D30061E08E810E94D30060E08E8115
:100260000E94D3008BE891E00197F1F7DF91CF91E5
:100270000895CF92DF92EF92FF920F931F93CF9347
:10028000DF936C017C0187E0E80EF11CD0E0C0E058
:10029000062F10E0B8010C2E02C0759567950A94E0
:1002A000E2F76170F70181917F010E94D3002196EE
:1002B000C430D10579F7C601DF91CF911F910F911D
:1002C000FF90EF90DF90CF900C942301CF92DF92BC
:1002D000EF92FF920F931F93CF93DF93EC01F62ED3
:1002E000642F8C810E94D3008D818F3F19F060E0D4
:1002F0000E94D3000F2D10E08F8584FF25C06E0172
:1003000087E0C80ED11CF12CE12CB8010E2C02C0E4
:10031000759567950A94E2F76170F60181916F0116
:100320000E94D300FFEFEF1AFF0A88E0E816F104FD
:1003300061F7CE01DF91CF911F910F91FF90EF9068
:10034000DF90CF900C942301B80184E075956795F8
:100350008A95E1F7CE010E9439016F2DCE01DF9120
:10036000CF911F910F91FF90EF90DF90CF900C9461
:10037000390140E0682F87E291E00C946601CF9349
:10038000DF93613029F090913601986090933601A7
:1003900060933A0110923B0190E490933C0180936A
:1003A0003D01805C80933E0180912B010E9487007B
:1003B00080912C018F3F11F00E94870080912D01C8
:1003C0000E948700C7E2D1E09E0127523140809110
:1003D000360184FD0AC084E090E021962817390791
:1003E0003CF48E810E948700EFCF88E090E0F5CF4B
:1003F0008BE39DE00197F1F760E080912B010E9473
:10040000D30060E080912D010E94D30080912C01E7
:100410008F3F19F060E00E94D3008091360184FD87
:1004200039C063E087E291E00E943901CBE4D6E471
:10043000CE010197F1F763E087E291E00E94390174
:100440002197F1F763E087E291E00E94390183E5AB
:1004500092E00197F1F762E087E291E00E943901B2
:100460008091360180620E94B90184E08093370157
:100470008CE00E94B90181E00E94B9018BE39FE109
:100480000197F1F782E08093380186E0DF91CF9108
:100490000C94B90180620E94B9018BE496E4019743
:1004A000F1F78091360180620E94B90183E592E004
:1004B0000197F1F78091360180620E94B901D0CF97
:1004C00041E00E94660181E090E008951F920F9242
:1004D0000FB60F9211242F933F938F939F93AF9357
:1004E000BF938091230190912401A0912501B091A7
:1004F00026013091220123E0230F2D3758F5019674
:10050000A11DB11D2093220180932301909324010A
:10051000A0932501B093260180911E0190911F01A7
:10052000A0912001B09121010196A11DB11D8093E0
:100530001E0190931F01A0932001B0932101BF9150
:10054000AF919F918F913F912F910F900FBE0F9080
:100550001F90189526E8230F0296A11DB11DD2CF3A
:10056000CF93DF93CDB7DEB7A1970FB6F894DEBF78
:100570000FBECDBF789484B5826084BD84B58160A0
:1005800084BD85B5826085BD85B5816085BD80915E
:100590006E00816080936E001092810080918100D6
:1005A00082608093810080918100816080938100CE
:1005B000809180008160809380008091B100846090
:1005C0008093B1008091B00081608093B0008091F1
:1005D0007A00846080937A0080917A0082608093B0
:1005E0007A0080917A00816080937A0080917A000D
:1005F000806880937A001092C10064E084E10E94D8
:10060000BF0141E150E06CE071E087E291E00E94BF
:10061000A60088EEC82E83E0D82EE12CF12C9AE0BB
:10062000492E512C612C712C20E0A22E20E0B22EFC
:10063000E0913A01E23008F03FC0E150F0E0E95DBE
:10064000FE4F848980680E94B9012FB7F8946091A9
:1006500023017091240180912501909126012FBFE3
:10066000A70196010E947D0319A28E010F5D1F4F05
:10067000CA01B901A30192010E947D03605DF801E6
:1006800062938F01211531054105510589F7309796
:1006900061F001900020E9F73197AF01401B510B49
:1006A000B80187E291E00E94A600A114B10409F408
:1006B000BFCF0E940000BCCFE1E0C0CFE7E2F1E095
:1006C0001382128284E091E09183808387E08483A7
:1006D0008FEF858388E0868389E087838AE080873F
:1006E0008BE081878CE082871386148615861686B8
:1006F000178661E080E10C94BF01A1E21A2EAA1BCB
:10070000BB1BFD010DC0AA1FBB1FEE1FFF1FA217C1
:10071000B307E407F50720F0A21BB30BE40BF50BBE
:10072000661F771F881F991F1A9469F76095709547
:10073000809590959B01AC01BD01CF010895EE0F0E
:0E074000FF1F0590F491E02D0994F894FFCF6F
:10074E00000000006002A60020011F0157656C63C7
:0E075E006F6D6520746F2054776F726B73009F
:103800000C94341C0C94511C0C94511C0C94511CA1
:103810000C94511C0C94511C0C94511C0C94511C74
:103820000C94511C0C94511C0C94511C0C94511C64
:103830000C94511C0C94511C0C94511C0C94511C54
:103840000C94511C0C94511C0C94511C0C94511C44
:103850000C94511C0C94511C0C94511C0C94511C34
:103860000C94511C0C94511C11241FBECFEFD4E0BA
:10387000DEBFCDBF11E0A0E0B1E0E4EAFFE302C0AB
:1038800005900D92A230B107D9F712E0A2E0B1E0A5
:1038900001C01D92AD30B107E1F70E94361D0C94B6
:1038A000D01F0C94001C982F9595959595959595FE
:1038B000905D8F708A307CF0282F295A8091C0004B
:1038C00085FFFCCF9093C6008091C00085FFFCCFA0
:1038D0002093C6000895282F205DF0CF982F809167
:1038E000C00085FFFCCF9093C6000895EF92FF9231
:1038F0000F931F93EE24FF2487018091C00087FD62
:1039000017C00894E11CF11C011D111D81E4E8168B
:1039100082E4F8068FE0080780E0180770F3E09172
:103920000401F091050109958091C00087FFE9CF5E
:103930008091C6001F910F91FF90EF9008950E9413
:10394000761C982F8091C00085FFFCCF9093C60015
:1039500091362CF490330CF09053892F089597559D
:10396000892F08951F930E949F1C182F0E949F1C4F
:103970001295107F810F1F910895882351F0982F81
:1039800091508091C00087FFFCCF8091C6009923A1
:10399000B9F708951F93182F0E94761C803249F0C2
:1039A000809103018F5F809303018530C1F01F91E7
:1039B00008958091C00085FFFCCF84E18093C6000C
:1039C0008091C00085FFFCCF1093C6008091C0009D
:1039D00085FFFCCF80E18093C6001F910895E091A0
:1039E0000401F091050109951F9108950E94761C2C
:1039F000803241F0809103018F5F80930301853015
:103A000081F008958091C00085FFFCCF84E1809310
:103A1000C6008091C00085FFFCCF80E18093C60086
:103A20000895E0910401F09105010995089510921F
:103A30000A028823D1F090E040E951E02D9A28EE67
:103A400033E0FA013197F1F721503040D1F72D984A
:103A500028EE33E0FA013197F1F721503040D1F7E9
:103A60009F5F981758F380930A0208953F924F92F0
:103A70005F926F927F928F929F92AF92BF92CF92FE
:103A8000DF92EF92FF920F931F93CF93DF9300008B
:103A900083E38093C4001092C50088E18093C10045
:103AA00086E08093C2005098589A259A81E00E943F
:103AB000171D44E1F42E3EE1E32E24E9D22E96E0D8
:103AC000C92E80E1B82EAA24A39401E4902E16E515
:103AD000812EB2E57B2EA0E26A2EF9E45F2EE3E5AB
:103AE0004E2E70E5372E0E94761C8033B1F1813363
:103AF00009F441C0803409F479C0813409F48CC0E0
:103B0000823471F1853409F47BC0803531F182351E
:103B100021F1813511F1853509F48DC0863509F41F
:103B20009DC0843609F4AEC0843709F41BC18537C3
:103B300009F485C1863709F47AC0809103018F5F4B
:103B400080930301853079F6E0910401F09105013D
:103B500009950E94761C803351F60E94F61CC3CF53
:103B600093E18091C00087FFFCCF8091C60099232C
:103B7000A1F39150F6CF0E94761C8032F1F680912D
:103B8000C00085FFFCCFF092C6008091C00085FF89
:103B9000FCCF9092C6008091C00085FFFCCF809240
:103BA000C6008091C00085FFFCCF7092C600809156
:103BB000C00085FFFCCF6092C6008091C00085FFE9
:103BC000FCCF5092C6008091C00085FFFCCF409290
:103BD000C6008091C00085FFFCCF3092C600809166
:103BE000C00085FFFCCFB092C6007DCF0E94761C3E
:103BF000863808F4B2CF0E94761C0E94F61C73CF60
:103C000094E08091C00087FFFCCF8091C60099238B
:103C100009F4A3CF9150F5CF0E94761C8038D1F0E3
:103C2000813861F1823809F499C0883979F080E0EF
:103C30000E94CA1C58CF0E94761C809306010E94E5
:103C4000761C809307010E94F61C4DCF83E00E94F2
:103C5000CA1C49CF82E00E94CA1C45CF0E94761C34
:103C6000803309F486C192E08091C00087FFFCCFC9
:103C70008091C6009923D9F29150F6CF81E00E943D
:103C8000CA1C31CF0E94761C809309020E94761CC8
:103C90008093080280910C028E7F80930C020E9418
:103CA000761C853429F480910C02816080930C028B
:103CB0008091080290910902892B89F000E010E0C0
:103CC0000E94761CF801E85FFE4F80830F5F1F4F54
:103CD00080910802909109020817190788F30E9441
:103CE000761C803209F029CF80910C0280FFD1C070
:103CF0004091060150910701440F551F5093070151
:103D000040930601A0910802B09109021097C9F0F2
:103D1000E8E0F1E09A01BD016E0F7F1FF999FECF37
:103D200032BD21BD819180BDFA9AF99A2F5F3F4F34
:103D3000E617F70799F74A0F5B1F50930701409367
:103D400006018091C00085FFFCCFF092C6008091F3
:103D5000C00085FFFCCFB092C600C5CE80E10E94B6
:103D6000CA1CC1CE0E94761C809309020E94761C58
:103D7000809308028091060190910701880F991F96
:103D800090930701809306010E94761C853409F404
:103D90007AC080910C028E7F80930C020E94761C68
:103DA000803209F0A0CE8091C00085FFFCCFF09258
:103DB000C600A0910802B09109021097B9F1809154
:103DC0000C02182F1170082F0270E0910601F0917B
:103DD00007019F012F5F3F4FB90140E050E01123E1
:103DE000B1F4002339F494918091C00085FFFCCF99
:103DF0009093C6004F5F5F4FCB010196F9014A17C0
:103E00005B0780F4BC012F5F3F4F112351F3F999F9
:103E1000FECFF2BDE1BDF89A90B58091C00085FF5C
:103E2000FCCFE6CF70930701609306018091C0003C
:103E300085FDD9CE8091C00085FFF8CFD4CE0E94F9
:103E4000761C803209F079CE8091C00085FFFCCFCE
:103E5000F092C6008091C00085FFFCCFE092C600C2
:103E60008091C00085FFFCCFD092C6008091C00039
:103E700085FFFCCFC092C6008091C00085FFFCCFBB
:103E8000B092C60030CE80910C02816080930C020B
:103E900085CF809107018823880F880B8A21809322
:103EA0000B028091060190910701880F991F909352
:103EB0000701809306018091080280FF09C080916C
:103EC00008029091090201969093090280930802DA
:103ED000F894F999FECF1127E0910601F0910701BE
:103EE000C8E0D1E08091080290910902103091F46D
:103EF0000091570001700130D9F303E0009357009F
:103F0000E8950091570001700130D9F301E1009369
:103F10005700E89509901990009157000170013001
:103F2000D9F301E000935700E8951395103498F009
:103F300011270091570001700130D9F305E000937B
:103F40005700E8950091570001700130D9F301E165
:103F500000935700E8953296029709F0C7CF1030CA
:103F600011F00296E5CF11248091C00085FFE9CEC3
:103F7000ECCE0E94761C0E94761C182F0E94761CA4
:103F8000112351F0113021F086E00E94CA1CABCD04
:103F900084E90E94CA1CA7CD8EE10E94CA1CA3CD51
:043FA000F894FFCFC3
:023FA40080009B
:0400000300003800C1
:00000001FF